# Tcpdump 
> This project is a simulated exercise, and all information presented is purely fictional for educational purposes.

## Scenario 
As a network analyst, you need to use `tcpdump` to capture and analyze live network traffic from a Linux virtual machine.

You'll begin by identifying network interfaces, then use `tcpdump` to filter and capture live network traffic, and finally, filter the captured data.

## Solutions

### 1. Identify Network Interfaces:
#### Find available interfaces:

```
Massimo@123456789:~$ sudo ifconfig
eth0: flags=4163<UP,BROADCAST,RUNNING,MULTICAST>  mtu 1460
    inet 172.17.0.2  netmask 255.255.0.0  broadcast 172.17.255.255
    ether 02:42:ac:11:00:02  txqueuelen 0  (Ethernet)
    RX packets 788  bytes 13730757 (13.0 MiB)
    RX errors 0  dropped 0  overruns 0  frame 0
    TX packets 433  bytes 42344 (41.3 KiB)
    TX errors 0  dropped 0  overruns 0  carrier 0  collisions 0

lo: flags=73<UP,LOOPBACK,RUNNING>  mtu 65536
    inet 127.0.0.1  netmask 255.0.0.0
    loop  txqueuelen 1000  (Local Loopback)
    RX packets 64  bytes 9049 (8.8 KiB)
    RX errors 0  dropped 0  overruns 0  frame 0
    TX packets 64  bytes 9049 (8.8 KiB)
    TX errors 0  dropped 0  overruns 0  carrier 0  collisions 0
```
- `sudo`: Elevates permissions to execute `ifconfig` with superuser privileges.
- `ifconfig`: Display network interface information and configure network interfaces.

#### Identify interfaces for packet capture:
```
Massimo@123456789:~$ sudo tcpdump -D
1.eth0 [Up, Running]
2.any (Pseudo-device that captures on all interfaces) [Up, Running]
3.lo [Up, Running, Loopback]
4.nflog (Linux netfilter log (NFLOG) interface)
5.nfqueue (Linux netfilter queue (NFQUEUE) interface)
```
- `sudo`: Elevates permissions to execute `tcpdump` with superuser privileges.
- `tcpdump`: A command-line network packet analyzer.
- `-D`: List all available network interfaces that `tcpdump` can capture data from.

### 2. Inspect Network Traffic with Tcpdump:

#### Filter live packet data:
```
Massimo@123456789:~$ sudo tcpdump -i eth0 -v -c 5
tcpdump: listening on eth0, link-type EN10MB (Ethernet), capture size 262144 bytes
09:36:11.624272 IP (tos 0x0, ttl 64, id 30537, offset 0, flags [DF], proto TCP (6), length 116)

    123456789.5000 > nginx-us-east1-b.c.qwiklabs-terminal-vms-prod-00.internal.43806: Flags [P.], 
    cksum 0x588e (incorrect -> 0x7ecd), seq 4239856191:4239856255, ack 1002124893, win 501, 
    options [nop,nop,TS val 2575066477 ecr 1763832873], length 64
09:36:11.624484 IP (tos 0x0, ttl 63, id 9600, offset 0, flags [DF], proto TCP (6), length 32)

    nginx-us-east1-b.c.qwiklabs-terminal-vms-prod-00.internal.43806 > 123456789.5000: Flags [.], 
    cksum 0x7fb6 (correct), ack 64, win 507, options [nop,nop,TS val 1763833058 ecr 2575066477], length 0
09:36:11.625289 IP (tos 0x0, ttl 64, id 34269, offset 0, flags [DF], proto UDP (17), length 69)

    123456789.50904 > metadata.google.internal.domain: 9515+ PTR? 2.0.18.172.in-addr.arpa. (41)
09:36:11.631973 IP (tos 0x0, ttl 63, id 0, offset 0, flags [none], proto UDP (17), length 140)

    metadata.google.internal.domain > 123456789.50904: 9515 1/0/0 2.0.18.172.in-addr.arpa. 
    PTR nginx-us-east1-b.c.qwiklabs-terminal-vms-prod-00.internal. (112)
09:36:11.632949 IP (tos 0x0, ttl 64, id 61137, offset 0, flags [DF], proto UDP (17), length 72)

    123456789.55082 > metadata.google.internal.domain: 28209+ PTR? 254.169.254.169.in-addr.arpa. (46)
5 packets captured
7 packets received by filter
0 packets dropped by kernel
```
   - `-i eth0`: Capture data from `eth0` interface.
   - `-v`: Display detailed packet data.
   - `-c5`: Capture 5 packets.

## 3.Capture Network Traffic:
```
Massimo@123456789:~$ sudo tepdump -i etho -mn -c9 port 80 -w capture-pcap &
[2] 12897
Massimo@123456789:~$ tcpdump: listening on etho, link-type EN10MB (Ethernet), capture size 2621
44 bytes
```
  - `-i eth0`: Capture from `eth0` interface.
  - `-nn`: No IP/port name resolution.
  - `-c9`: Capture 9 packets.
  - `port 80`: Filter HTTP traffic 
  - `-w capture.pcap`: Save data to `capture.pcap`.
  - `&`: Run in background.

#### Generate HTTP traffic.
```
Massimo@123456789:~$ curl opensource.google.com
‹HIML><HEAD><weta http-equiv="content-type" content="text/htwl;charset=utf-8"›
<TITLE>301 Moved</TITLE></HEAD><BODY>
<H1>301 Moved</H1>
The document has moved
<A HREE="https://opensource.google/"›here</A>.
</BODYS/HIME>
9 packets captured
10 packets received by filter
0 packets dropped by kernel
[2]+ Done                  sudo topdump -i etho -nn -c9 port 80 -w capture-pcap
Massimo@123456789:~$ 9 packets captured
10 packets received by filter
0 packets dropped by kernel
```
- `curl`: A command-line tool for transferring data with URLs.
- `opensource.google.com`: Is the URL being accessed by `curl`.

#### Verify capture:
```
Massimo@123456789:~$ ls -l capture-pcap
-rw-r--r-- 1 root root 1445 Feb 6 09:45 capture-pcap
```
- `ls`: Lists files and directories.
- `-l`: Option for `ls` to display list in long format
- `capture-pcap`: The specific file or directory listed.

## 4.Filter Captured Packet Data:

#### Filter packet header data: 
```
Massimo@123456789:~$ sudo tcpdump -nn -r capture-pcap -v
reading from file capture-pcap, link-type EN10MB (Ethernet)
09:45:58.901437 IP (tos 0x0, ttl 64, id 26678, offset 0, flags [DF], proto TCP (6), length 60)
    172.17.0.2.52802 > 173.194.217.138.80: Flags [S], cksum 0x338f (incorrect → 0xfd6b), seq 1996331610,
    options [mss 1420, sackOK, TS val 3320672781 ecr 0, nop, wscale 7], length 0
09:45:58.902288 IP (tos 0x60, ttl 126, id 0, offset 0, flags [DF], proto TCP (6), length 60)
    173.194.217.138.80 > 172.17.0.2.52802: Flags [S.], cksum 0xd2c1 (correct), seq 2221910294, ack 1996331611,
    options [mss 1420, sackOK, TS val 3500747662 ecr 3320672781, nop, wscale 8], length 0
09:45:58.902349 IP (tos 0x0, ttl 64, id 26679, offset 0, flags [DF], proto TCP (6), length 52)
    172.17.0.2.52802 > 173.194.217.138.80: Flags [.], cksum 0x3387 (incorrect → 0xff66), ack 1, win 511, 
    options [nop,nop, TS val 3320672782 ecr 3500747662], length 0
09:45:58.902425 IP (tos 0x0, ttl 64, id 26680, offset 0, flags [DF], proto TCP (6), length 137)
    172.17.0.2.52802 > 173.194.217.138.80: Flags [P.], cksum 0x33dc (incorrect → 0xfeda), seq 1:86, ack 1,
    options [nop,nop, TS val 3320672782 ecr 3500747662], length 85: HTTP, length: 85
        GET / HTTP/1.1
        Host: opensource.google.com
        User-Agent: curl/7.64.0
        Accept: */*
09:45:58.902652 IP (tos 0x60, ttl 126, id 0, offset 0, flags [DF], proto TCP (6), length 52)
    173.194.217.138.80 > 172.17.0.2.52802: Flags [.], cksum 0x0011 (correct), ack 86, win 256,
    options [nop,nop, TS val 3500747662 ecr 3320672782], length 0
09:45:58.906650 IP (tos 0x60, ttl 126, id 0, offset 0, flags [DF], proto TCP (6), length 634)
    173.194.217.138.80 > 172.17.0.2.52802: Flags [P.], cksum 0xb7fd (correct), seq 1:583, ack 86, win 256,
    options [nop,nop, TS val 3500747666 ecr 3320672782], length 582: HTTP, length: 582
        HTTP/1.1 301 Moved Permanently
        Location: https://opensource.google/
        Cross-Origin-Resource-Policy: cross-origin
        Content-Type: text/html; charset=UTF-8
        X-Content-Type-Options: nosniff
        Date: Tue, 06 Feb 2024 09:45:58 GMT
```
  - `-nn`: Disable name lookup.
  - `-r`: Read from file.
  - `-v`: Show detailed data.

#### Filter extended packet data: 
```
Massimo@123456789:~$ sudo tcpdump -nn -r capture.pcap -X
reading from file capture.pcap, link-type EN10MB (Ethernet)
09:45:58.901437 IP 172.17.0.2.52802 > 173.194.217.138.80: Flags [S], seq 1996331610, win 29200, options [mss 1460,sackOK,TS val 3320672781 ecr 0,nop,wscale 7], length 0
        0x0000:  4500 003c 6836 4000 4006 b1e6 ac11 0002  E..<h6@.@.......
        0x0010:  adc2 d98a ce82 0050 770c 4b9a 0000 0000  .......Pw.K.....
        0x0020:  a002 7210 338f 0000 0204 05b4 0402 080a  ..r.3...........
        0x0030:  c5e0 b22d 0000 0000 0103 0307            ...-........
09:45:58.902288 IP 173.194.217.138.80 > 172.17.0.2.52802: Flags [S.], seq 2221910294, ack 1996331611, win 42540, options [mss 1460,sackOK,TS val 3500747662 ecr 3320672781,nop,wscale 8], length 0
        0x0000:  4500 003c 0000 4000 7e06 6d1f adc2 d98a  E..<..@.~.m.....
        0x0010:  ac11 0002 0050 ce82 8460 7856 770c 4b9b  .....P...`xVw.K.
        0x0020:  a012 a634 d2c1 0000 0204 05b4 0402 080a  ...4............
        0x0030:  d0c7 6fee c5e0 b22d 0103 0308            ..o....-....
09:45:58.902349 IP 172.17.0.2.52802 > 173.194.217.138.80: Flags [.], ack 1, win 29200, options [nop,nop,TS val 3320672782 ecr 3500747662], length 0
        0x0000:  4500 0034 6837 4000 4006 b1ed ac11 0002  E..4h7@.@.......
        0x0010:  adc2 d98a ce82 0050 770c 4b9b 8460 7857  .......Pw.K..`xW
        0x0020:  8010 7210 3387 0000 0101 080a c5e0 b22e  ..r.3...........
        0x0030:  d0c7 6fee                                ..o.
09:45:58.902425 IP 172.17.0.2.52802 > 173.194.217.138.80: Flags [P.], seq 1:86, ack 1, win 29200, options [nop,nop,TS val 3320672782 ecr 3500747662], length 85: HTTP
        0x0000:  4500 0089 6838 4000 4006 b198 ac11 0002  E...h8@.@.......
        0x0010:  adc2 d98a ce82 0050 770c 4b9b 8460 7857  .......Pw.K..`xW
        0x0020:  8018 7210 33dc 0000 0101 080a c5e0 b22e  ..r.3...........
        0x0030:  d0c7 6fee 4745 5420 2f20 4854 5450 2f31  ..o.GET / HTTP/1
        0x0040:  2e31 0d0a 486f 7374 3a20 6f70 656e 736f  .1..Host: openso
        0x0050:  7572 6365 2e67 6f6f 676c 652e 636f 6d0d  urce.google.com.
        0x0060:  0a55 7365 722d 4167 656e 743a 2063 7572  .User-Agent: cur
        0x0070:  6c2f 372e 3634 2e30 0d0a 4163 6365 7074  l/7.64.0..Accept
        0x0080:  3a20 2a2f 2a0d 0a                        : */*..
09:45:58.902652 IP 173.194.217.138.80 > 172.17.0.2.52802: Flags [.], ack 86, win 256, options [nop,nop,TS val 3500747662 ecr 3320672782], length 0
        0x0000:  4500 0034 0000 4000 7e06 6d26 adc2 d98a  E..4..@.~.m&....
        0x0010:  ac11 0002 0050 ce82 8460 7857 770c 4bee  .....P...`xWw.K.
        0x0020:  8010 0100 0011 0000 0101 080a d0c7 6fee  ..............o.
        0x0030:  c5e0 b22e                                ....
09:45:58.906650 IP 173.194.217.138.80 > 172.17.0.2.52802: Flags [P.], seq 1:583, ack 86, win 256, options [nop,nop,TS val 3500747666 ecr 3320672782], length 582: HTTP
        0x0000:  4500 028a 0000 4000 7e06 6adc adc2 d98a  E.....@.~.j.....
        0x0010:  ac11 0002 0050 ce82 8460 7857 770c 4bee  .....P...`xWw.K.
        0x0020:  8018 0100 b7fd 0000 0101 080a d0c7 6ff2  ..............o.
        0x0030:  c5e0 b22e 4854 5450 2f31 2e31 2033 3031  ....HTTP/1.1 301
        0x0040:  204d 6f76 6564 2050 6572 6d61 6e65 6e74   Moved Permanent
        0x0050:  6c79 0d0a 4c6f 6361 7469 6f6e 3a20 6874  ly..Location: ht
        0x0060:  7470 733a 2f2f 6f70 656e 736f 7572 6365  tps://opensource
        0x0070:  2e67 6f6f 676c 652e 636f 6d2f 0d0a 436f  .google.com/..Co
        0x0080:  6e74 656e 742d 5479 7065 3a20 7465 7874  ntent-Type: text
        0x0090:  2f68 746d 6c3b 2063 6861 7273 6574 3d55  /html; charset=U
        0x00a0:  5446 2d38 0d0a 580d 2d43 6f6e 7465 6e74  TF-8..X.Content
        0x00b0:  2d54 7970 652d 4f70 7469 6f6e 733a 206e  -Type-Options: n
        0x00c0:  6f73 6e69
```
 - `-nn`: Disable port and protocol name lookup.
 - `-r`: Read capure data from the named file.
 - `-X`: Display the hexadecimal and ASCII output format packet data. Security analysts can analyze hexadecimal and ASCII output to detect patterns or anomalies during malware analysis or forensic analysis.

*Note: Hexadecimal, also known as hex or base 16, uses 16 symbols to represent values, including the digits 0-9 and letters A, B, C, D, E, and F. American Standard Code for Information Interchange (ASCII) is a character encoding standard that uses a set of characters to represent text in digital form.*

> Here is my [certificate.](https://www.coursera.org/account/accomplishments/certificate/9GLYJNJVE3Z9) Please visit [Detection and Response](https://www.coursera.org/learn/detection-and-response?specialization=google-cybersecurity) for more information.
